{
  "_format": "hh-sol-artifact-1",
  "contractName": "Domains",
  "sourceName": "contracts/Domains.sol",
  "abi": [
    {
      "inputs": [
        {
          "internalType": "string",
          "name": "_tld",
          "type": "string"
        }
      ],
      "stateMutability": "payable",
      "type": "constructor"
    },
    {
      "inputs": [],
      "name": "AlreadyRegistered",
      "type": "error"
    },
    {
      "inputs": [
        {
          "internalType": "string",
          "name": "name",
          "type": "string"
        }
      ],
      "name": "InvalidName",
      "type": "error"
    },
    {
      "inputs": [],
      "name": "Unauthorized",
      "type": "error"
    },
    {
      "anonymous": false,
      "inputs": [
        {
          "indexed": true,
          "internalType": "address",
          "name": "owner",
          "type": "address"
        },
        {
          "indexed": true,
          "internalType": "address",
          "name": "approved",
          "type": "address"
        },
        {
          "indexed": true,
          "internalType": "uint256",
          "name": "tokenId",
          "type": "uint256"
        }
      ],
      "name": "Approval",
      "type": "event"
    },
    {
      "anonymous": false,
      "inputs": [
        {
          "indexed": true,
          "internalType": "address",
          "name": "owner",
          "type": "address"
        },
        {
          "indexed": true,
          "internalType": "address",
          "name": "operator",
          "type": "address"
        },
        {
          "indexed": false,
          "internalType": "bool",
          "name": "approved",
          "type": "bool"
        }
      ],
      "name": "ApprovalForAll",
      "type": "event"
    },
    {
      "anonymous": false,
      "inputs": [
        {
          "indexed": true,
          "internalType": "address",
          "name": "from",
          "type": "address"
        },
        {
          "indexed": true,
          "internalType": "address",
          "name": "to",
          "type": "address"
        },
        {
          "indexed": true,
          "internalType": "uint256",
          "name": "tokenId",
          "type": "uint256"
        }
      ],
      "name": "Transfer",
      "type": "event"
    },
    {
      "inputs": [
        {
          "internalType": "address",
          "name": "to",
          "type": "address"
        },
        {
          "internalType": "uint256",
          "name": "tokenId",
          "type": "uint256"
        }
      ],
      "name": "approve",
      "outputs": [],
      "stateMutability": "nonpayable",
      "type": "function"
    },
    {
      "inputs": [
        {
          "internalType": "address",
          "name": "owner",
          "type": "address"
        }
      ],
      "name": "balanceOf",
      "outputs": [
        {
          "internalType": "uint256",
          "name": "",
          "type": "uint256"
        }
      ],
      "stateMutability": "view",
      "type": "function"
    },
    {
      "inputs": [
        {
          "internalType": "string",
          "name": "",
          "type": "string"
        }
      ],
      "name": "domains",
      "outputs": [
        {
          "internalType": "address",
          "name": "",
          "type": "address"
        }
      ],
      "stateMutability": "view",
      "type": "function"
    },
    {
      "inputs": [
        {
          "internalType": "string",
          "name": "_name",
          "type": "string"
        }
      ],
      "name": "getAddress",
      "outputs": [
        {
          "internalType": "address",
          "name": "",
          "type": "address"
        }
      ],
      "stateMutability": "view",
      "type": "function"
    },
    {
      "inputs": [],
      "name": "getAllNames",
      "outputs": [
        {
          "internalType": "string[]",
          "name": "",
          "type": "string[]"
        }
      ],
      "stateMutability": "view",
      "type": "function"
    },
    {
      "inputs": [
        {
          "internalType": "uint256",
          "name": "tokenId",
          "type": "uint256"
        }
      ],
      "name": "getApproved",
      "outputs": [
        {
          "internalType": "address",
          "name": "",
          "type": "address"
        }
      ],
      "stateMutability": "view",
      "type": "function"
    },
    {
      "inputs": [
        {
          "internalType": "string",
          "name": "_name",
          "type": "string"
        }
      ],
      "name": "getRecords",
      "outputs": [
        {
          "internalType": "string",
          "name": "",
          "type": "string"
        }
      ],
      "stateMutability": "view",
      "type": "function"
    },
    {
      "inputs": [
        {
          "internalType": "address",
          "name": "owner",
          "type": "address"
        },
        {
          "internalType": "address",
          "name": "operator",
          "type": "address"
        }
      ],
      "name": "isApprovedForAll",
      "outputs": [
        {
          "internalType": "bool",
          "name": "",
          "type": "bool"
        }
      ],
      "stateMutability": "view",
      "type": "function"
    },
    {
      "inputs": [],
      "name": "isOwner",
      "outputs": [
        {
          "internalType": "bool",
          "name": "",
          "type": "bool"
        }
      ],
      "stateMutability": "view",
      "type": "function"
    },
    {
      "inputs": [],
      "name": "name",
      "outputs": [
        {
          "internalType": "string",
          "name": "",
          "type": "string"
        }
      ],
      "stateMutability": "view",
      "type": "function"
    },
    {
      "inputs": [
        {
          "internalType": "uint256",
          "name": "",
          "type": "uint256"
        }
      ],
      "name": "names",
      "outputs": [
        {
          "internalType": "string",
          "name": "",
          "type": "string"
        }
      ],
      "stateMutability": "view",
      "type": "function"
    },
    {
      "inputs": [],
      "name": "owner",
      "outputs": [
        {
          "internalType": "address payable",
          "name": "",
          "type": "address"
        }
      ],
      "stateMutability": "view",
      "type": "function"
    },
    {
      "inputs": [
        {
          "internalType": "uint256",
          "name": "tokenId",
          "type": "uint256"
        }
      ],
      "name": "ownerOf",
      "outputs": [
        {
          "internalType": "address",
          "name": "",
          "type": "address"
        }
      ],
      "stateMutability": "view",
      "type": "function"
    },
    {
      "inputs": [
        {
          "internalType": "string",
          "name": "_name",
          "type": "string"
        }
      ],
      "name": "price",
      "outputs": [
        {
          "internalType": "uint256",
          "name": "",
          "type": "uint256"
        }
      ],
      "stateMutability": "pure",
      "type": "function"
    },
    {
      "inputs": [
        {
          "internalType": "string",
          "name": "",
          "type": "string"
        }
      ],
      "name": "records",
      "outputs": [
        {
          "internalType": "string",
          "name": "",
          "type": "string"
        }
      ],
      "stateMutability": "view",
      "type": "function"
    },
    {
      "inputs": [
        {
          "internalType": "string",
          "name": "name",
          "type": "string"
        }
      ],
      "name": "register",
      "outputs": [],
      "stateMutability": "payable",
      "type": "function"
    },
    {
      "inputs": [
        {
          "internalType": "address",
          "name": "from",
          "type": "address"
        },
        {
          "internalType": "address",
          "name": "to",
          "type": "address"
        },
        {
          "internalType": "uint256",
          "name": "tokenId",
          "type": "uint256"
        }
      ],
      "name": "safeTransferFrom",
      "outputs": [],
      "stateMutability": "nonpayable",
      "type": "function"
    },
    {
      "inputs": [
        {
          "internalType": "address",
          "name": "from",
          "type": "address"
        },
        {
          "internalType": "address",
          "name": "to",
          "type": "address"
        },
        {
          "internalType": "uint256",
          "name": "tokenId",
          "type": "uint256"
        },
        {
          "internalType": "bytes",
          "name": "_data",
          "type": "bytes"
        }
      ],
      "name": "safeTransferFrom",
      "outputs": [],
      "stateMutability": "nonpayable",
      "type": "function"
    },
    {
      "inputs": [
        {
          "internalType": "address",
          "name": "operator",
          "type": "address"
        },
        {
          "internalType": "bool",
          "name": "approved",
          "type": "bool"
        }
      ],
      "name": "setApprovalForAll",
      "outputs": [],
      "stateMutability": "nonpayable",
      "type": "function"
    },
    {
      "inputs": [
        {
          "internalType": "string",
          "name": "_name",
          "type": "string"
        },
        {
          "internalType": "string",
          "name": "_record",
          "type": "string"
        }
      ],
      "name": "setRecord",
      "outputs": [],
      "stateMutability": "nonpayable",
      "type": "function"
    },
    {
      "inputs": [
        {
          "internalType": "bytes4",
          "name": "interfaceId",
          "type": "bytes4"
        }
      ],
      "name": "supportsInterface",
      "outputs": [
        {
          "internalType": "bool",
          "name": "",
          "type": "bool"
        }
      ],
      "stateMutability": "view",
      "type": "function"
    },
    {
      "inputs": [],
      "name": "symbol",
      "outputs": [
        {
          "internalType": "string",
          "name": "",
          "type": "string"
        }
      ],
      "stateMutability": "view",
      "type": "function"
    },
    {
      "inputs": [],
      "name": "tld",
      "outputs": [
        {
          "internalType": "string",
          "name": "",
          "type": "string"
        }
      ],
      "stateMutability": "view",
      "type": "function"
    },
    {
      "inputs": [
        {
          "internalType": "uint256",
          "name": "tokenId",
          "type": "uint256"
        }
      ],
      "name": "tokenURI",
      "outputs": [
        {
          "internalType": "string",
          "name": "",
          "type": "string"
        }
      ],
      "stateMutability": "view",
      "type": "function"
    },
    {
      "inputs": [
        {
          "internalType": "address",
          "name": "from",
          "type": "address"
        },
        {
          "internalType": "address",
          "name": "to",
          "type": "address"
        },
        {
          "internalType": "uint256",
          "name": "tokenId",
          "type": "uint256"
        }
      ],
      "name": "transferFrom",
      "outputs": [],
      "stateMutability": "nonpayable",
      "type": "function"
    },
    {
      "inputs": [
        {
          "internalType": "string",
          "name": "name",
          "type": "string"
        }
      ],
      "name": "valid",
      "outputs": [
        {
          "internalType": "bool",
          "name": "",
          "type": "bool"
        }
      ],
      "stateMutability": "pure",
      "type": "function"
    },
    {
      "inputs": [],
      "name": "withdraw",
      "outputs": [],
      "stateMutability": "nonpayable",
      "type": "function"
    }
  ],
  "bytecode": "0x6080604052604051806107a0016040528061076d815260200162004dfc61076d91396009908051906020019062000038929190620001ad565b506040518060400160405280600d81526020017f3c2f746578743e3c2f7376673e00000000000000000000000000000000000000815250600a908051906020019062000086929190620001ad565b5060405162005569380380620055698339818101604052810190620000ac9190620003fa565b6040518060400160405280601b81526020017f436f6f6c20414620446f6d61696e204e616d65205365727669636500000000008152506040518060400160405280600481526020017f41464e5300000000000000000000000000000000000000000000000000000000815250816000908051906020019062000130929190620001ad565b50806001908051906020019062000149929190620001ad565b50505033600e60006101000a81548173ffffffffffffffffffffffffffffffffffffffff021916908373ffffffffffffffffffffffffffffffffffffffff1602179055508060089080519060200190620001a5929190620001ad565b5050620004b0565b828054620001bb906200047a565b90600052602060002090601f016020900481019282620001df57600085556200022b565b82601f10620001fa57805160ff19168380011785556200022b565b828001600101855582156200022b579182015b828111156200022a5782518255916020019190600101906200020d565b5b5090506200023a91906200023e565b5090565b5b80821115620002595760008160009055506001016200023f565b5090565b6000604051905090565b600080fd5b600080fd5b600080fd5b600080fd5b6000601f19601f8301169050919050565b7f4e487b7100000000000000000000000000000000000000000000000000000000600052604160045260246000fd5b620002c6826200027b565b810181811067ffffffffffffffff82111715620002e857620002e76200028c565b5b80604052505050565b6000620002fd6200025d565b90506200030b8282620002bb565b919050565b600067ffffffffffffffff8211156200032e576200032d6200028c565b5b62000339826200027b565b9050602081019050919050565b60005b838110156200036657808201518184015260208101905062000349565b8381111562000376576000848401525b50505050565b6000620003936200038d8462000310565b620002f1565b905082815260208101848484011115620003b257620003b162000276565b5b620003bf84828562000346565b509392505050565b600082601f830112620003df57620003de62000271565b5b8151620003f18482602086016200037c565b91505092915050565b60006020828403121562000413576200041262000267565b5b600082015167ffffffffffffffff8111156200043457620004336200026c565b5b6200044284828501620003c7565b91505092915050565b7f4e487b7100000000000000000000000000000000000000000000000000000000600052602260045260246000fd5b600060028204905060018216806200049357607f821691505b60208210811415620004aa57620004a96200044b565b5b50919050565b61493c80620004c06000396000f3fe60806040526004361061019c5760003560e01c806386e80b71116100ec578063bf40fac11161008a578063e985e9c511610064578063e985e9c514610624578063f2c298be14610661578063fb825e5f1461067d578063fe2c6198146106a85761019c565b8063bf40fac114610581578063c1880a98146105be578063c87b56dd146105e75761019c565b806395d89b41116100c657806395d89b41146104c75780639791c097146104f2578063a22cb4651461052f578063b88d4fde146105585761019c565b806386e80b71146104345780638da5cb5b146104715780638f32d59b1461049c5761019c565b80632d551432116101595780634622ab03116101335780634622ab0314610340578063541e771d1461037d5780636352211e146103ba57806370a08231146103f75761019c565b80632d551432146102d55780633ccfd60b1461030057806342842e0e146103175761019c565b806301ffc9a7146101a157806306fdde03146101de578063081812fc14610209578063095ea7b31461024657806323b872dd1461026f5780632644923514610298575b600080fd5b3480156101ad57600080fd5b506101c860048036038101906101c39190612e04565b6106e5565b6040516101d59190612e4c565b60405180910390f35b3480156101ea57600080fd5b506101f36107c7565b6040516102009190612f00565b60405180910390f35b34801561021557600080fd5b50610230600480360381019061022b9190612f58565b610859565b60405161023d9190612fc6565b60405180910390f35b34801561025257600080fd5b5061026d6004803603810190610268919061300d565b6108de565b005b34801561027b57600080fd5b506102966004803603810190610291919061304d565b6109f6565b005b3480156102a457600080fd5b506102bf60048036038101906102ba91906131d5565b610a56565b6040516102cc9190612fc6565b60405180910390f35b3480156102e157600080fd5b506102ea610a9f565b6040516102f79190612f00565b60405180910390f35b34801561030c57600080fd5b50610315610b2d565b005b34801561032357600080fd5b5061033e6004803603810190610339919061304d565b610bf3565b005b34801561034c57600080fd5b5061036760048036038101906103629190612f58565b610c13565b6040516103749190612f00565b60405180910390f35b34801561038957600080fd5b506103a4600480360381019061039f91906131d5565b610cb3565b6040516103b19190612f00565b60405180910390f35b3480156103c657600080fd5b506103e160048036038101906103dc9190612f58565b610d69565b6040516103ee9190612fc6565b60405180910390f35b34801561040357600080fd5b5061041e6004803603810190610419919061321e565b610e1b565b60405161042b919061325a565b60405180910390f35b34801561044057600080fd5b5061045b600480360381019061045691906132d5565b610ed3565b6040516104689190612f00565b60405180910390f35b34801561047d57600080fd5b50610486610f86565b6040516104939190613343565b60405180910390f35b3480156104a857600080fd5b506104b1610fac565b6040516104be9190612e4c565b60405180910390f35b3480156104d357600080fd5b506104dc611004565b6040516104e99190612f00565b60405180910390f35b3480156104fe57600080fd5b50610519600480360381019061051491906132d5565b611096565b6040516105269190612e4c565b60405180910390f35b34801561053b57600080fd5b506105566004803603810190610551919061338a565b61114a565b005b34801561056457600080fd5b5061057f600480360381019061057a919061346b565b611160565b005b34801561058d57600080fd5b506105a860048036038101906105a391906132d5565b6111c2565b6040516105b59190612fc6565b60405180910390f35b3480156105ca57600080fd5b506105e560048036038101906105e091906134ee565b61120d565b005b3480156105f357600080fd5b5061060e60048036038101906106099190612f58565b6112e8565b60405161061b9190612f00565b60405180910390f35b34801561063057600080fd5b5061064b6004803603810190610646919061356f565b61143a565b6040516106589190612e4c565b60405180910390f35b61067b600480360381019061067691906132d5565b6114ce565b005b34801561068957600080fd5b506106926117d9565b60405161069f91906136bb565b60405180910390f35b3480156106b457600080fd5b506106cf60048036038101906106ca91906132d5565b6119b7565b6040516106dc919061325a565b60405180910390f35b60007f80ac58cd000000000000000000000000000000000000000000000000000000007bffffffffffffffffffffffffffffffffffffffffffffffffffffffff1916827bffffffffffffffffffffffffffffffffffffffffffffffffffffffff191614806107b057507f5b5e139f000000000000000000000000000000000000000000000000000000007bffffffffffffffffffffffffffffffffffffffffffffffffffffffff1916827bffffffffffffffffffffffffffffffffffffffffffffffffffffffff1916145b806107c057506107bf82611a5d565b5b9050919050565b6060600080546107d69061370c565b80601f01602080910402602001604051908101604052809291908181526020018280546108029061370c565b801561084f5780601f106108245761010080835404028352916020019161084f565b820191906000526020600020905b81548152906001019060200180831161083257829003601f168201915b5050505050905090565b600061086482611ac7565b6108a3576040517f08c379a000000000000000000000000000000000000000000000000000000000815260040161089a906137b0565b60405180910390fd5b6004600083815260200190815260200160002060009054906101000a900473ffffffffffffffffffffffffffffffffffffffff169050919050565b60006108e982610d69565b90508073ffffffffffffffffffffffffffffffffffffffff168373ffffffffffffffffffffffffffffffffffffffff16141561095a576040517f08c379a000000000000000000000000000000000000000000000000000000000815260040161095190613842565b60405180910390fd5b8073ffffffffffffffffffffffffffffffffffffffff16610979611b33565b73ffffffffffffffffffffffffffffffffffffffff1614806109a857506109a7816109a2611b33565b61143a565b5b6109e7576040517f08c379a00000000000000000000000000000000000000000000000000000000081526004016109de906138d4565b60405180910390fd5b6109f18383611b3b565b505050565b610a07610a01611b33565b82611bf4565b610a46576040517f08c379a0000000000000000000000000000000000000000000000000000000008152600401610a3d90613966565b60405180910390fd5b610a51838383611cd2565b505050565b600b818051602081018201805184825260208301602085012081835280955050505050506000915054906101000a900473ffffffffffffffffffffffffffffffffffffffff1681565b60088054610aac9061370c565b80601f0160208091040260200160405190810160405280929190818152602001828054610ad89061370c565b8015610b255780601f10610afa57610100808354040283529160200191610b25565b820191906000526020600020905b815481529060010190602001808311610b0857829003601f168201915b505050505081565b610b35610fac565b610b3e57600080fd5b600047905060003373ffffffffffffffffffffffffffffffffffffffff1682604051610b69906139b7565b60006040518083038185875af1925050503d8060008114610ba6576040519150601f19603f3d011682016040523d82523d6000602084013e610bab565b606091505b5050905080610bef576040517f08c379a0000000000000000000000000000000000000000000000000000000008152600401610be690613a18565b60405180910390fd5b5050565b610c0e83838360405180602001604052806000815250611160565b505050565b600d6020528060005260406000206000915090508054610c329061370c565b80601f0160208091040260200160405190810160405280929190818152602001828054610c5e9061370c565b8015610cab5780601f10610c8057610100808354040283529160200191610cab565b820191906000526020600020905b815481529060010190602001808311610c8e57829003601f168201915b505050505081565b600c818051602081018201805184825260208301602085012081835280955050505050506000915090508054610ce89061370c565b80601f0160208091040260200160405190810160405280929190818152602001828054610d149061370c565b8015610d615780601f10610d3657610100808354040283529160200191610d61565b820191906000526020600020905b815481529060010190602001808311610d4457829003601f168201915b505050505081565b6000806002600084815260200190815260200160002060009054906101000a900473ffffffffffffffffffffffffffffffffffffffff169050600073ffffffffffffffffffffffffffffffffffffffff168173ffffffffffffffffffffffffffffffffffffffff161415610e12576040517f08c379a0000000000000000000000000000000000000000000000000000000008152600401610e0990613aaa565b60405180910390fd5b80915050919050565b60008073ffffffffffffffffffffffffffffffffffffffff168273ffffffffffffffffffffffffffffffffffffffff161415610e8c576040517f08c379a0000000000000000000000000000000000000000000000000000000008152600401610e8390613b3c565b60405180910390fd5b600360008373ffffffffffffffffffffffffffffffffffffffff1673ffffffffffffffffffffffffffffffffffffffff168152602001908152602001600020549050919050565b6060600c8383604051610ee7929190613b8c565b90815260200160405180910390208054610f009061370c565b80601f0160208091040260200160405190810160405280929190818152602001828054610f2c9061370c565b8015610f795780601f10610f4e57610100808354040283529160200191610f79565b820191906000526020600020905b815481529060010190602001808311610f5c57829003601f168201915b5050505050905092915050565b600e60009054906101000a900473ffffffffffffffffffffffffffffffffffffffff1681565b6000600e60009054906101000a900473ffffffffffffffffffffffffffffffffffffffff1673ffffffffffffffffffffffffffffffffffffffff163373ffffffffffffffffffffffffffffffffffffffff1614905090565b6060600180546110139061370c565b80601f016020809104026020016040519081016040528092919081815260200182805461103f9061370c565b801561108c5780601f106110615761010080835404028352916020019161108c565b820191906000526020600020905b81548152906001019060200180831161106f57829003601f168201915b5050505050905090565b600060036110e784848080601f016020809104026020016040519081016040528093929190818152602001838380828437600081840152601f19601f82011690508083019250505050505050611f39565b101580156111425750600a61113f84848080601f016020809104026020016040519081016040528093929190818152602001838380828437600081840152601f19601f82011690508083019250505050505050611f39565b11155b905092915050565b61115c611155611b33565b83836120ee565b5050565b61117161116b611b33565b83611bf4565b6111b0576040517f08c379a00000000000000000000000000000000000000000000000000000000081526004016111a790613966565b60405180910390fd5b6111bc8484848461225b565b50505050565b6000600b83836040516111d6929190613b8c565b908152602001604051809103902060009054906101000a900473ffffffffffffffffffffffffffffffffffffffff16905092915050565b600b848460405161121f929190613b8c565b908152602001604051809103902060009054906101000a900473ffffffffffffffffffffffffffffffffffffffff1673ffffffffffffffffffffffffffffffffffffffff163373ffffffffffffffffffffffffffffffffffffffff16146112b2576040517f82b4290000000000000000000000000000000000000000000000000000000000815260040160405180910390fd5b8181600c86866040516112c6929190613b8c565b908152602001604051809103902091906112e1929190612c6f565b5050505050565b60606112f382611ac7565b611332576040517f08c379a000000000000000000000000000000000000000000000000000000000815260040161132990613c17565b60405180910390fd5b60006006600084815260200190815260200160002080546113529061370c565b80601f016020809104026020016040519081016040528092919081815260200182805461137e9061370c565b80156113cb5780601f106113a0576101008083540402835291602001916113cb565b820191906000526020600020905b8154815290600101906020018083116113ae57829003601f168201915b5050505050905060006113dc6122b7565b90506000815114156113f2578192505050611435565b60008251111561142757808260405160200161140f929190613c68565b60405160208183030381529060405292505050611435565b611430846122ce565b925050505b919050565b6000600560008473ffffffffffffffffffffffffffffffffffffffff1673ffffffffffffffffffffffffffffffffffffffff16815260200190815260200160002060008373ffffffffffffffffffffffffffffffffffffffff1673ffffffffffffffffffffffffffffffffffffffff16815260200190815260200160002060009054906101000a900460ff16905092915050565b600073ffffffffffffffffffffffffffffffffffffffff16600b83836040516114f8929190613b8c565b908152602001604051809103902060009054906101000a900473ffffffffffffffffffffffffffffffffffffffff1673ffffffffffffffffffffffffffffffffffffffff1614611574576040517f3a81d6fc00000000000000000000000000000000000000000000000000000000815260040160405180910390fd5b61157e8282611096565b6115c15781816040517f7f19f48d0000000000000000000000000000000000000000000000000000000081526004016115b8929190613cb9565b60405180910390fd5b60006115cd83836119b7565b905080341015611612576040517f08c379a000000000000000000000000000000000000000000000000000000000815260040161160990613d29565b60405180910390fd5b60008383600860405160200161162a93929190613e29565b60405160208183030381529060405290506000600982600a60405160200161165493929190613e5a565b604051602081830303815290604052905060006116716007612375565b905060006116c287878080601f016020809104026020016040519081016040528093929190818152602001838380828437600081840152601f19601f82011690508083019250505050505050611f39565b905060006116cf82612383565b90506000611707866116e0876124e4565b846040516020016116f393929190614007565b6040516020818303038152906040526124e4565b905060008160405160200161171c91906140b0565b6040516020818303038152906040529050611737338661267c565b611741858261269a565b33600b8b8b604051611754929190613b8c565b908152602001604051809103902060006101000a81548173ffffffffffffffffffffffffffffffffffffffff021916908373ffffffffffffffffffffffffffffffffffffffff1602179055508989600d600088815260200190815260200160002091906117c2929190612c6f565b506117cd600761270e565b50505050505050505050565b60606118196040518060400160405280602081526020017f47657474696e6720616c6c206e616d65732066726f6d20636f6e74726163742e815250612724565b60006118256007612375565b67ffffffffffffffff81111561183e5761183d6130aa565b5b60405190808252806020026020018201604052801561187157816020015b606081526020019060019003908161185c5790505b50905060005b6118816007612375565b8110156119af57600d600082815260200190815260200160002080546118a69061370c565b80601f01602080910402602001604051908101604052809291908181526020018280546118d29061370c565b801561191f5780601f106118f45761010080835404028352916020019161191f565b820191906000526020600020905b81548152906001019060200180831161190257829003601f168201915b5050505050828281518110611937576119366140d2565b5b602002602001018190525061199c6040518060400160405280601c81526020017f4e616d6520666f7220746f6b656e206964202564206973202573202e000000008152508284848151811061198f5761198e6140d2565b5b60200260200101516127bd565b80806119a790614130565b915050611877565b508091505090565b600080611a0784848080601f016020809104026020016040519081016040528093929190818152602001838380828437600081840152601f19601f82011690508083019250505050505050611f39565b905060008111611a1657600080fd5b6003811415611a30576706f05b59d3b20000915050611a57565b6004811415611a4a57670429d069189e0000915050611a57565b67016345785d8a00009150505b92915050565b60007f01ffc9a7000000000000000000000000000000000000000000000000000000007bffffffffffffffffffffffffffffffffffffffffffffffffffffffff1916827bffffffffffffffffffffffffffffffffffffffffffffffffffffffff1916149050919050565b60008073ffffffffffffffffffffffffffffffffffffffff166002600084815260200190815260200160002060009054906101000a900473ffffffffffffffffffffffffffffffffffffffff1673ffffffffffffffffffffffffffffffffffffffff1614159050919050565b600033905090565b816004600083815260200190815260200160002060006101000a81548173ffffffffffffffffffffffffffffffffffffffff021916908373ffffffffffffffffffffffffffffffffffffffff160217905550808273ffffffffffffffffffffffffffffffffffffffff16611bae83610d69565b73ffffffffffffffffffffffffffffffffffffffff167f8c5be1e5ebec7d5bd14f71427d1e84f3dd0314c0f7b2291e5b200ac8c7c3b92560405160405180910390a45050565b6000611bff82611ac7565b611c3e576040517f08c379a0000000000000000000000000000000000000000000000000000000008152600401611c35906141eb565b60405180910390fd5b6000611c4983610d69565b90508073ffffffffffffffffffffffffffffffffffffffff168473ffffffffffffffffffffffffffffffffffffffff161480611cb857508373ffffffffffffffffffffffffffffffffffffffff16611ca084610859565b73ffffffffffffffffffffffffffffffffffffffff16145b80611cc95750611cc8818561143a565b5b91505092915050565b8273ffffffffffffffffffffffffffffffffffffffff16611cf282610d69565b73ffffffffffffffffffffffffffffffffffffffff1614611d48576040517f08c379a0000000000000000000000000000000000000000000000000000000008152600401611d3f9061427d565b60405180910390fd5b600073ffffffffffffffffffffffffffffffffffffffff168273ffffffffffffffffffffffffffffffffffffffff161415611db8576040517f08c379a0000000000000000000000000000000000000000000000000000000008152600401611daf9061430f565b60405180910390fd5b611dc383838361285c565b611dce600082611b3b565b6001600360008573ffffffffffffffffffffffffffffffffffffffff1673ffffffffffffffffffffffffffffffffffffffff1681526020019081526020016000206000828254611e1e919061432f565b925050819055506001600360008473ffffffffffffffffffffffffffffffffffffffff1673ffffffffffffffffffffffffffffffffffffffff1681526020019081526020016000206000828254611e759190614363565b92505081905550816002600083815260200190815260200160002060006101000a81548173ffffffffffffffffffffffffffffffffffffffff021916908373ffffffffffffffffffffffffffffffffffffffff160217905550808273ffffffffffffffffffffffffffffffffffffffff168473ffffffffffffffffffffffffffffffffffffffff167fddf252ad1be2c89b69c2b068fc378daa952ba7f163c4a11628f55a4df523b3ef60405160405180910390a4611f34838383612861565b505050565b60008060008084519050600092505b808210156120e3576000858381518110611f6557611f646140d2565b5b602001015160f81c60f81b9050608060f81b817effffffffffffffffffffffffffffffffffffffffffffffffffffffffffffff19161015611fb457600183611fad9190614363565b92506120cf565b60e060f81b817effffffffffffffffffffffffffffffffffffffffffffffffffffffffffffff19161015611ff657600283611fef9190614363565b92506120ce565b60f060f81b817effffffffffffffffffffffffffffffffffffffffffffffffffffffffffffff19161015612038576003836120319190614363565b92506120cd565b60f8801b817effffffffffffffffffffffffffffffffffffffffffffffffffffffffffffff19161015612079576004836120729190614363565b92506120cc565b60fc60f81b817effffffffffffffffffffffffffffffffffffffffffffffffffffffffffffff191610156120bb576005836120b49190614363565b92506120cb565b6006836120c89190614363565b92505b5b5b5b5b5082806120db90614130565b935050611f48565b829350505050919050565b8173ffffffffffffffffffffffffffffffffffffffff168373ffffffffffffffffffffffffffffffffffffffff16141561215d576040517f08c379a000000000000000000000000000000000000000000000000000000000815260040161215490614405565b60405180910390fd5b80600560008573ffffffffffffffffffffffffffffffffffffffff1673ffffffffffffffffffffffffffffffffffffffff16815260200190815260200160002060008473ffffffffffffffffffffffffffffffffffffffff1673ffffffffffffffffffffffffffffffffffffffff16815260200190815260200160002060006101000a81548160ff0219169083151502179055508173ffffffffffffffffffffffffffffffffffffffff168373ffffffffffffffffffffffffffffffffffffffff167f17307eab39ab6107e8899845ad3d59bd9653f200f220920489ca2b5937696c318360405161224e9190612e4c565b60405180910390a3505050565b612266848484611cd2565b61227284848484612866565b6122b1576040517f08c379a00000000000000000000000000000000000000000000000000000000081526004016122a890614497565b60405180910390fd5b50505050565b606060405180602001604052806000815250905090565b60606122d982611ac7565b612318576040517f08c379a000000000000000000000000000000000000000000000000000000000815260040161230f90614529565b60405180910390fd5b60006123226122b7565b90506000815111612342576040518060200160405280600081525061236d565b8061234c84612383565b60405160200161235d929190613c68565b6040516020818303038152906040525b915050919050565b600081600001549050919050565b606060008214156123cb576040518060400160405280600181526020017f300000000000000000000000000000000000000000000000000000000000000081525090506124df565b600082905060005b600082146123fd5780806123e690614130565b915050600a826123f69190614578565b91506123d3565b60008167ffffffffffffffff811115612419576124186130aa565b5b6040519080825280601f01601f19166020018201604052801561244b5781602001600182028036833780820191505090505b5090505b600085146124d857600182612464919061432f565b9150600a8561247391906145a9565b603061247f9190614363565b60f81b818381518110612495576124946140d2565b5b60200101907effffffffffffffffffffffffffffffffffffffffffffffffffffffffffffff1916908160001a905350600a856124d19190614578565b945061244f565b8093505050505b919050565b6060600082519050600081141561250d5760405180602001604052806000815250915050612677565b6000600360028361251e9190614363565b6125289190614578565b600461253491906145da565b905060006020826125459190614363565b67ffffffffffffffff81111561255e5761255d6130aa565b5b6040519080825280601f01601f1916602001820160405280156125905781602001600182028036833780820191505090505b50905060006040518060600160405280604081526020016148c7604091399050600181016020830160005b868110156126345760038101905062ffffff818a015116603f8160121c168401518060081b905060ff603f83600c1c1686015116810190508060081b905060ff603f8360061c1686015116810190508060081b905060ff603f831686015116810190508060e01b905080845260048401935050506125bb565b50600386066001811461264e576002811461265e57612669565b613d3d60f01b6002830352612669565b603d60f81b60018303525b508484525050819450505050505b919050565b6126968282604051806020016040528060008152506129ee565b5050565b6126a382611ac7565b6126e2576040517f08c379a00000000000000000000000000000000000000000000000000000000081526004016126d9906146a6565b60405180910390fd5b80600660008481526020019081526020016000209080519060200190612709929190612cf5565b505050565b6001816000016000828254019250508190555050565b6127ba816040516024016127389190612f00565b6040516020818303038152906040527f41304fac000000000000000000000000000000000000000000000000000000007bffffffffffffffffffffffffffffffffffffffffffffffffffffffff19166020820180517bffffffffffffffffffffffffffffffffffffffffffffffffffffffff8381831617835250505050612a49565b50565b6128578383836040516024016127d5939291906146c6565b6040516020818303038152906040527fa3f5c739000000000000000000000000000000000000000000000000000000007bffffffffffffffffffffffffffffffffffffffffffffffffffffffff19166020820180517bffffffffffffffffffffffffffffffffffffffffffffffffffffffff8381831617835250505050612a49565b505050565b505050565b505050565b60006128878473ffffffffffffffffffffffffffffffffffffffff16612a72565b156129e1578373ffffffffffffffffffffffffffffffffffffffff1663150b7a026128b0611b33565b8786866040518563ffffffff1660e01b81526004016128d29493929190614760565b6020604051808303816000875af192505050801561290e57506040513d601f19601f8201168201806040525081019061290b91906147c1565b60015b612991573d806000811461293e576040519150601f19603f3d011682016040523d82523d6000602084013e612943565b606091505b50600081511415612989576040517f08c379a000000000000000000000000000000000000000000000000000000000815260040161298090614497565b60405180910390fd5b805181602001fd5b63150b7a0260e01b7bffffffffffffffffffffffffffffffffffffffffffffffffffffffff1916817bffffffffffffffffffffffffffffffffffffffffffffffffffffffff1916149150506129e6565b600190505b949350505050565b6129f88383612a95565b612a056000848484612866565b612a44576040517f08c379a0000000000000000000000000000000000000000000000000000000008152600401612a3b90614497565b60405180910390fd5b505050565b60008151905060006a636f6e736f6c652e6c6f679050602083016000808483855afa5050505050565b6000808273ffffffffffffffffffffffffffffffffffffffff163b119050919050565b600073ffffffffffffffffffffffffffffffffffffffff168273ffffffffffffffffffffffffffffffffffffffff161415612b05576040517f08c379a0000000000000000000000000000000000000000000000000000000008152600401612afc9061483a565b60405180910390fd5b612b0e81611ac7565b15612b4e576040517f08c379a0000000000000000000000000000000000000000000000000000000008152600401612b45906148a6565b60405180910390fd5b612b5a6000838361285c565b6001600360008473ffffffffffffffffffffffffffffffffffffffff1673ffffffffffffffffffffffffffffffffffffffff1681526020019081526020016000206000828254612baa9190614363565b92505081905550816002600083815260200190815260200160002060006101000a81548173ffffffffffffffffffffffffffffffffffffffff021916908373ffffffffffffffffffffffffffffffffffffffff160217905550808273ffffffffffffffffffffffffffffffffffffffff16600073ffffffffffffffffffffffffffffffffffffffff167fddf252ad1be2c89b69c2b068fc378daa952ba7f163c4a11628f55a4df523b3ef60405160405180910390a4612c6b60008383612861565b5050565b828054612c7b9061370c565b90600052602060002090601f016020900481019282612c9d5760008555612ce4565b82601f10612cb657803560ff1916838001178555612ce4565b82800160010185558215612ce4579182015b82811115612ce3578235825591602001919060010190612cc8565b5b509050612cf19190612d7b565b5090565b828054612d019061370c565b90600052602060002090601f016020900481019282612d235760008555612d6a565b82601f10612d3c57805160ff1916838001178555612d6a565b82800160010185558215612d6a579182015b82811115612d69578251825591602001919060010190612d4e565b5b509050612d779190612d7b565b5090565b5b80821115612d94576000816000905550600101612d7c565b5090565b6000604051905090565b600080fd5b600080fd5b60007fffffffff0000000000000000000000000000000000000000000000000000000082169050919050565b612de181612dac565b8114612dec57600080fd5b50565b600081359050612dfe81612dd8565b92915050565b600060208284031215612e1a57612e19612da2565b5b6000612e2884828501612def565b91505092915050565b60008115159050919050565b612e4681612e31565b82525050565b6000602082019050612e616000830184612e3d565b92915050565b600081519050919050565b600082825260208201905092915050565b60005b83811015612ea1578082015181840152602081019050612e86565b83811115612eb0576000848401525b50505050565b6000601f19601f8301169050919050565b6000612ed282612e67565b612edc8185612e72565b9350612eec818560208601612e83565b612ef581612eb6565b840191505092915050565b60006020820190508181036000830152612f1a8184612ec7565b905092915050565b6000819050919050565b612f3581612f22565b8114612f4057600080fd5b50565b600081359050612f5281612f2c565b92915050565b600060208284031215612f6e57612f6d612da2565b5b6000612f7c84828501612f43565b91505092915050565b600073ffffffffffffffffffffffffffffffffffffffff82169050919050565b6000612fb082612f85565b9050919050565b612fc081612fa5565b82525050565b6000602082019050612fdb6000830184612fb7565b92915050565b612fea81612fa5565b8114612ff557600080fd5b50565b60008135905061300781612fe1565b92915050565b6000806040838503121561302457613023612da2565b5b600061303285828601612ff8565b925050602061304385828601612f43565b9150509250929050565b60008060006060848603121561306657613065612da2565b5b600061307486828701612ff8565b935050602061308586828701612ff8565b925050604061309686828701612f43565b9150509250925092565b600080fd5b600080fd5b7f4e487b7100000000000000000000000000000000000000000000000000000000600052604160045260246000fd5b6130e282612eb6565b810181811067ffffffffffffffff82111715613101576131006130aa565b5b80604052505050565b6000613114612d98565b905061312082826130d9565b919050565b600067ffffffffffffffff8211156131405761313f6130aa565b5b61314982612eb6565b9050602081019050919050565b82818337600083830152505050565b600061317861317384613125565b61310a565b905082815260208101848484011115613194576131936130a5565b5b61319f848285613156565b509392505050565b600082601f8301126131bc576131bb6130a0565b5b81356131cc848260208601613165565b91505092915050565b6000602082840312156131eb576131ea612da2565b5b600082013567ffffffffffffffff81111561320957613208612da7565b5b613215848285016131a7565b91505092915050565b60006020828403121561323457613233612da2565b5b600061324284828501612ff8565b91505092915050565b61325481612f22565b82525050565b600060208201905061326f600083018461324b565b92915050565b600080fd5b600080fd5b60008083601f840112613295576132946130a0565b5b8235905067ffffffffffffffff8111156132b2576132b1613275565b5b6020830191508360018202830111156132ce576132cd61327a565b5b9250929050565b600080602083850312156132ec576132eb612da2565b5b600083013567ffffffffffffffff81111561330a57613309612da7565b5b6133168582860161327f565b92509250509250929050565b600061332d82612f85565b9050919050565b61333d81613322565b82525050565b60006020820190506133586000830184613334565b92915050565b61336781612e31565b811461337257600080fd5b50565b6000813590506133848161335e565b92915050565b600080604083850312156133a1576133a0612da2565b5b60006133af85828601612ff8565b92505060206133c085828601613375565b9150509250929050565b600067ffffffffffffffff8211156133e5576133e46130aa565b5b6133ee82612eb6565b9050602081019050919050565b600061340e613409846133ca565b61310a565b90508281526020810184848401111561342a576134296130a5565b5b613435848285613156565b509392505050565b600082601f830112613452576134516130a0565b5b81356134628482602086016133fb565b91505092915050565b6000806000806080858703121561348557613484612da2565b5b600061349387828801612ff8565b94505060206134a487828801612ff8565b93505060406134b587828801612f43565b925050606085013567ffffffffffffffff8111156134d6576134d5612da7565b5b6134e28782880161343d565b91505092959194509250565b6000806000806040858703121561350857613507612da2565b5b600085013567ffffffffffffffff81111561352657613525612da7565b5b6135328782880161327f565b9450945050602085013567ffffffffffffffff81111561355557613554612da7565b5b6135618782880161327f565b925092505092959194509250565b6000806040838503121561358657613585612da2565b5b600061359485828601612ff8565b92505060206135a585828601612ff8565b9150509250929050565b600081519050919050565b600082825260208201905092915050565b6000819050602082019050919050565b600082825260208201905092915050565b60006135f782612e67565b61360181856135db565b9350613611818560208601612e83565b61361a81612eb6565b840191505092915050565b600061363183836135ec565b905092915050565b6000602082019050919050565b6000613651826135af565b61365b81856135ba565b93508360208202850161366d856135cb565b8060005b858110156136a9578484038952815161368a8582613625565b945061369583613639565b925060208a01995050600181019050613671565b50829750879550505050505092915050565b600060208201905081810360008301526136d58184613646565b905092915050565b7f4e487b7100000000000000000000000000000000000000000000000000000000600052602260045260246000fd5b6000600282049050600182168061372457607f821691505b60208210811415613738576137376136dd565b5b50919050565b7f4552433732313a20617070726f76656420717565727920666f72206e6f6e657860008201527f697374656e7420746f6b656e0000000000000000000000000000000000000000602082015250565b600061379a602c83612e72565b91506137a58261373e565b604082019050919050565b600060208201905081810360008301526137c98161378d565b9050919050565b7f4552433732313a20617070726f76616c20746f2063757272656e74206f776e6560008201527f7200000000000000000000000000000000000000000000000000000000000000602082015250565b600061382c602183612e72565b9150613837826137d0565b604082019050919050565b6000602082019050818103600083015261385b8161381f565b9050919050565b7f4552433732313a20617070726f76652063616c6c6572206973206e6f74206f7760008201527f6e6572206e6f7220617070726f76656420666f7220616c6c0000000000000000602082015250565b60006138be603883612e72565b91506138c982613862565b604082019050919050565b600060208201905081810360008301526138ed816138b1565b9050919050565b7f4552433732313a207472616e736665722063616c6c6572206973206e6f74206f60008201527f776e6572206e6f7220617070726f766564000000000000000000000000000000602082015250565b6000613950603183612e72565b915061395b826138f4565b604082019050919050565b6000602082019050818103600083015261397f81613943565b9050919050565b600081905092915050565b50565b60006139a1600083613986565b91506139ac82613991565b600082019050919050565b60006139c282613994565b9150819050919050565b7f4661696c656420746f207769746864726177204d617469632e00000000000000600082015250565b6000613a02601983612e72565b9150613a0d826139cc565b602082019050919050565b60006020820190508181036000830152613a31816139f5565b9050919050565b7f4552433732313a206f776e657220717565727920666f72206e6f6e657869737460008201527f656e7420746f6b656e0000000000000000000000000000000000000000000000602082015250565b6000613a94602983612e72565b9150613a9f82613a38565b604082019050919050565b60006020820190508181036000830152613ac381613a87565b9050919050565b7f4552433732313a2062616c616e636520717565727920666f7220746865207a6560008201527f726f206164647265737300000000000000000000000000000000000000000000602082015250565b6000613b26602a83612e72565b9150613b3182613aca565b604082019050919050565b60006020820190508181036000830152613b5581613b19565b9050919050565b600081905092915050565b6000613b738385613b5c565b9350613b80838584613156565b82840190509392505050565b6000613b99828486613b67565b91508190509392505050565b7f45524337323155524953746f726167653a2055524920717565727920666f722060008201527f6e6f6e6578697374656e7420746f6b656e000000000000000000000000000000602082015250565b6000613c01603183612e72565b9150613c0c82613ba5565b604082019050919050565b60006020820190508181036000830152613c3081613bf4565b9050919050565b6000613c4282612e67565b613c4c8185613b5c565b9350613c5c818560208601612e83565b80840191505092915050565b6000613c748285613c37565b9150613c808284613c37565b91508190509392505050565b6000613c988385612e72565b9350613ca5838584613156565b613cae83612eb6565b840190509392505050565b60006020820190508181036000830152613cd4818486613c8c565b90509392505050565b7f4e6f7420656e6f756768204d4154494320706169642e00000000000000000000600082015250565b6000613d13601683612e72565b9150613d1e82613cdd565b602082019050919050565b60006020820190508181036000830152613d4281613d06565b9050919050565b7f2e00000000000000000000000000000000000000000000000000000000000000600082015250565b6000613d7f600183613b5c565b9150613d8a82613d49565b600182019050919050565b60008190508160005260206000209050919050565b60008154613db78161370c565b613dc18186613b5c565b94506001821660008114613ddc5760018114613ded57613e20565b60ff19831686528186019350613e20565b613df685613d95565b60005b83811015613e1857815481890152600182019150602081019050613df9565b838801955050505b50505092915050565b6000613e36828587613b67565b9150613e4182613d72565b9150613e4d8284613daa565b9150819050949350505050565b6000613e668286613daa565b9150613e728285613c37565b9150613e7e8284613daa565b9150819050949350505050565b7f7b226e616d65223a202200000000000000000000000000000000000000000000600082015250565b6000613ec1600a83613b5c565b9150613ecc82613e8b565b600a82019050919050565b7f222c20226465736372697074696f6e223a20224120646f6d61696e206f6e207460008201527f686520436f6f66204146204e616d652053657276696365222c2022696d61676560208201527f223a2022646174613a696d6167652f7376672b786d6c3b6261736536342c2000604082015250565b6000613f59605f83613b5c565b9150613f6482613ed7565b605f82019050919050565b7f222c226c656e677468223a220000000000000000000000000000000000000000600082015250565b6000613fa5600c83613b5c565b9150613fb082613f6f565b600c82019050919050565b7f227d000000000000000000000000000000000000000000000000000000000000600082015250565b6000613ff1600283613b5c565b9150613ffc82613fbb565b600282019050919050565b600061401282613eb4565b915061401e8286613c37565b915061402982613f4c565b91506140358285613c37565b915061404082613f98565b915061404c8284613c37565b915061405782613fe4565b9150819050949350505050565b7f646174613a6170706c69636174696f6e2f6a736f6e3b6261736536342c000000600082015250565b600061409a601d83613b5c565b91506140a582614064565b601d82019050919050565b60006140bb8261408d565b91506140c78284613c37565b915081905092915050565b7f4e487b7100000000000000000000000000000000000000000000000000000000600052603260045260246000fd5b7f4e487b7100000000000000000000000000000000000000000000000000000000600052601160045260246000fd5b600061413b82612f22565b91507fffffffffffffffffffffffffffffffffffffffffffffffffffffffffffffffff82141561416e5761416d614101565b5b600182019050919050565b7f4552433732313a206f70657261746f7220717565727920666f72206e6f6e657860008201527f697374656e7420746f6b656e0000000000000000000000000000000000000000602082015250565b60006141d5602c83612e72565b91506141e082614179565b604082019050919050565b60006020820190508181036000830152614204816141c8565b9050919050565b7f4552433732313a207472616e736665722066726f6d20696e636f72726563742060008201527f6f776e6572000000000000000000000000000000000000000000000000000000602082015250565b6000614267602583612e72565b91506142728261420b565b604082019050919050565b600060208201905081810360008301526142968161425a565b9050919050565b7f4552433732313a207472616e7366657220746f20746865207a65726f2061646460008201527f7265737300000000000000000000000000000000000000000000000000000000602082015250565b60006142f9602483612e72565b91506143048261429d565b604082019050919050565b60006020820190508181036000830152614328816142ec565b9050919050565b600061433a82612f22565b915061434583612f22565b92508282101561435857614357614101565b5b828203905092915050565b600061436e82612f22565b915061437983612f22565b9250827fffffffffffffffffffffffffffffffffffffffffffffffffffffffffffffffff038211156143ae576143ad614101565b5b828201905092915050565b7f4552433732313a20617070726f766520746f2063616c6c657200000000000000600082015250565b60006143ef601983612e72565b91506143fa826143b9565b602082019050919050565b6000602082019050818103600083015261441e816143e2565b9050919050565b7f4552433732313a207472616e7366657220746f206e6f6e20455243373231526560008201527f63656976657220696d706c656d656e7465720000000000000000000000000000602082015250565b6000614481603283612e72565b915061448c82614425565b604082019050919050565b600060208201905081810360008301526144b081614474565b9050919050565b7f4552433732314d657461646174613a2055524920717565727920666f72206e6f60008201527f6e6578697374656e7420746f6b656e0000000000000000000000000000000000602082015250565b6000614513602f83612e72565b915061451e826144b7565b604082019050919050565b6000602082019050818103600083015261454281614506565b9050919050565b7f4e487b7100000000000000000000000000000000000000000000000000000000600052601260045260246000fd5b600061458382612f22565b915061458e83612f22565b92508261459e5761459d614549565b5b828204905092915050565b60006145b482612f22565b91506145bf83612f22565b9250826145cf576145ce614549565b5b828206905092915050565b60006145e582612f22565b91506145f083612f22565b9250817fffffffffffffffffffffffffffffffffffffffffffffffffffffffffffffffff048311821515161561462957614628614101565b5b828202905092915050565b7f45524337323155524953746f726167653a2055524920736574206f66206e6f6e60008201527f6578697374656e7420746f6b656e000000000000000000000000000000000000602082015250565b6000614690602e83612e72565b915061469b82614634565b604082019050919050565b600060208201905081810360008301526146bf81614683565b9050919050565b600060608201905081810360008301526146e08186612ec7565b90506146ef602083018561324b565b81810360408301526147018184612ec7565b9050949350505050565b600081519050919050565b600082825260208201905092915050565b60006147328261470b565b61473c8185614716565b935061474c818560208601612e83565b61475581612eb6565b840191505092915050565b60006080820190506147756000830187612fb7565b6147826020830186612fb7565b61478f604083018561324b565b81810360608301526147a18184614727565b905095945050505050565b6000815190506147bb81612dd8565b92915050565b6000602082840312156147d7576147d6612da2565b5b60006147e5848285016147ac565b91505092915050565b7f4552433732313a206d696e7420746f20746865207a65726f2061646472657373600082015250565b6000614824602083612e72565b915061482f826147ee565b602082019050919050565b6000602082019050818103600083015261485381614817565b9050919050565b7f4552433732313a20746f6b656e20616c7265616479206d696e74656400000000600082015250565b6000614890601c83612e72565b915061489b8261485a565b602082019050919050565b600060208201905081810360008301526148bf81614883565b905091905056fe4142434445464748494a4b4c4d4e4f505152535455565758595a6162636465666768696a6b6c6d6e6f707172737475767778797a303132333435363738392b2fa264697066735822122008fe2f02e3d5634fca9cad89e084bbe04b451cbac0d62eb49c8359c8c44533fc64736f6c634300080a00333c73766720786d6c6e733d22687474703a2f2f7777772e77332e6f72672f323030302f737667222077696474683d2232373022206865696768743d22323730222066696c6c3d226e6f6e65223e3c706174682066696c6c3d2275726c282361292220643d224d302030683237307632373048307a222f3e3c646566733e3c66696c7465722069643d22622220636f6c6f722d696e746572706f6c6174696f6e2d66696c746572733d2273524742222066696c746572556e6974733d227573657253706163654f6e55736522206865696768743d22323730222077696474683d22323730223e3c666544726f70536861646f772064783d2230222064793d22312220737464446576696174696f6e3d22322220666c6f6f642d6f7061636974793d222e323235222077696474683d223230302522206865696768743d2232303025222f3e3c2f66696c7465723e3c2f646566733e3c7061746820643d224d37322e3836332034322e39343961342e33383220342e3338322030203020302d342e33393420306c2d31302e30383120362e3033322d362e383520332e3933342d31302e30383120362e30333261342e33383220342e3338322030203020312d342e33393420306c2d382e3031332d342e37323161342e353220342e35322030203020312d312e3538392d312e36313620342e353420342e35342030203020312d2e3630382d322e313837762d392e333161342e323720342e3237203020302031202e3537322d322e32303820342e323520342e323520302030203120312e3632352d312e3539356c372e3838342d342e353961342e33383220342e33383220302030203120342e33393420306c372e38383420342e353961342e353220342e353220302030203120312e35383920312e36313620342e353420342e3534203020302031202e36303820322e31383776362e3033326c362e38352d342e303635762d362e30333261342e323720342e32372030203020302d2e3537322d322e32303820342e323520342e32352030203020302d312e3632352d312e3539354c34312e3435362032342e353961342e33383220342e3338322030203020302d342e33393420306c2d31342e38363420382e36353561342e323520342e32352030203020302d312e36323520312e35393520342e32373320342e3237332030203020302d2e35373220322e3230387631372e34343161342e323720342e3237203020302030202e35373220322e32303820342e323520342e323520302030203020312e36323520312e3539356c31342e38363420382e36353561342e33383220342e33383220302030203020342e33393420306c31302e3038312d352e39303120362e38352d342e3036352031302e3038312d352e39303161342e33383220342e33383220302030203120342e33393420306c372e38383420342e353961342e353220342e353220302030203120312e35383920312e36313620342e353420342e3534203020302031202e36303820322e31383776392e33313161342e323720342e32372030203020312d2e35373220322e32303820342e323520342e32352030203020312d312e36323520312e3539356c2d372e38383420342e37323161342e33383220342e3338322030203020312d342e33393420306c2d372e3838342d342e353961342e353220342e35322030203020312d312e3538392d312e36313620342e353320342e35332030203020312d2e3630382d322e313837762d362e3033326c2d362e383520342e30363576362e30333261342e323720342e3237203020302030202e35373220322e32303820342e323520342e323520302030203020312e36323520312e3539356c31342e38363420382e36353561342e33383220342e33383220302030203020342e33393420306c31342e3836342d382e36353561342e35343520342e35343520302030203020322e3139382d332e3830335635352e35333861342e323720342e32372030203020302d2e3537322d322e32303820342e323520342e32352030203020302d312e3632352d312e3539356c2d31342e3939332d382e3738367a222066696c6c3d2223666666222f3e3c646566733e3c6c696e6561724772616469656e742069643d2261222078313d2230222079313d2230222078323d22323730222079323d2232373022206772616469656e74556e6974733d227573657253706163654f6e557365223e3c73746f702073746f702d636f6c6f723d22236362356565222f3e3c73746f70206f66667365743d2235222073746f702d636f6c6f723d2223306364376538222073746f702d6f7061636974793d222e3939222f3e3c2f6c696e6561724772616469656e743e3c2f646566733e3c7465787420783d2233322e352220793d223233312220666f6e742d73697a653d223237222066696c6c3d2223666666222066696c7465723d2275726c282362292220666f6e742d66616d696c793d22506c7573204a616b617274612053616e732c44656a6156752053616e732c4e6f746f20436f6c6f7220456d6f6a692c4170706c6520436f6c6f7220456d6f6a692c73616e732d73657269662220666f6e742d7765696768743d22626f6c64223e",
  "linkReferences": {},
  "deployedLinkReferences": {}
}